:030000000208C42F
:0C08C400787FE4F6D8FD75812E02090B48
:100950000A220001020408102040800008097F4993
:1009600049493600000008111F2444447F0000005C
:0A09700008197F4141412E000000EC
:1009DA00E4F50875A001F5B0752102E521640270FD
:0609EA00FA12080080F57E
:1009A000E4FDFCC3ED9FEC9E5015E4FBFA0BBB008D
:0F09B000010ABA01F8BBF4F50DBD00010C80E49B
:0109BF002215
:1009F000E4F521E50864077004F508800205087530
:030A0000210222AE
:1009C000E4FEEEC39F5012758C3C758AB0D28C3019
:0909D0008DFDC28CC28D0E80E980
:0109D90022FB
:10080000752101E4F52DF52E7B077A0074092BF88C
:10081000E6FEAD2EA805088002C333D8FCFF339254
:10082000B0C2B1D2B1EB1B70011ABAFFDFBBFFDC63
:100830007A007B0774112BF8E6FFAE2EA80608801D
:1008400002C333D8FCFF3392B0C2B1D2B1EB1B70FC
:10085000011ABAFFDFBBFFDC7A007B0774192BF8A3
:10086000E6FFAE2EA806088002C333D8FCFF339201
:10087000B0C2B1D2B1EB1B70011ABAFFDFBBFFDC13
:100880007A007B0774092BF8E6FFAE2EA8060880D5
:1008900002C333D8FCFF3392B0C2B1D2B1EB1B70AC
:1008A000011ABAFFDFBBFFDCC2B2D2B2852EA005AF
:1008B0002EE52E7002052D6408452D600302080800
:0308C0007521029D
:0108C3002212
:10097B00E4FEEEC3940874809480500FEF3392B072
:10098B00C2B1D2B1EF25E0FF0E80E77F051209C09F
:04099B00C2B2D2B260
:01099F002235
:1008D0000209DAE493A3F8E493A34003F68001F25B
:1008E00008DFF48029E493A3F85407240CC8C33329
:1008F000C4540F4420C8834004F456800146F6DFF8
:10090000E4800B0102040810204080900950E47E2E
:10091000019360BCA3FF543F30E509541FFEE493EC
:10092000A360010ECF54C025E060A840B8E493A3B3
:10093000FAE493A3F8E493A3C8C582C8CAC583CADE
:10094000F0A3C8C582C8CAC583CADFE9DEE780BE96
:01097A00007C
:00000001FF
