:03000000020800F3
:0C080000787FE4F6D8FD758148020847B7
:10088C000A390001020408102040800020300900C1
:10089C00000000000000010000000000000001004A
:1008AC000000010001000000000000000100010038
:1008BC000000010000000100010001000100010125
:0208CC00080022
:10093B00E4FEEEC39F5012758C3C758AB0D28C309E
:09094B008DFDC28CC28D0E80E905
:010954002280
:0208CF008F4850
:1008D1007FFFE4FEEEC3940874809480500FEF33E1
:1008E10092B0C2B1D2B1EF25E0FF0E80E77F0512D1
:0608F100093BC2B2D2B2C5
:0108F70022DE
:1008F800E4F544F5457546037547E8F5A0F5B07588
:1009080089017FFF1208CF7FFF1208CF7F051209E8
:030918003B80F42D
:10091B00E4FDFCC3ED9FEC9E5015E4FBFA0BBB0012
:0F092B00010ABA04F8BBFBF50DBD00010C80E416
:01093A00229A
:100955007F017E0012091B0508E50864087002F591
:02096500082266
:10080C000208F8E493A3F8E493A34003F68001F202
:10081C0008DFF48029E493A3F85407240CC8C333ED
:10082C00C4540F4420C8834004F456800146F6DFBC
:10083C00E4800B010204081020408090088CE47EB8
:10084C00019360BCA3FF543F30E509541FFEE493B1
:10085C00A360010ECF54C025E060A840B8E493A378
:10086C00FAE493A3F8E493A3C8C582C8CAC583CAA3
:10087C00F0A3C8C582C8CAC583CADFE9DEE780BE5B
:0108CE000029
:00000001FF
