:03000000020800F3
:0C080000787FE4F6D8FD7581610208479E
:10091300083A0F0F0F0F0F0F0F0F080A0002414184
:100923007E00000008127F08142241000000081A0C
:100933007F0101010100000008227F2018207F00B1
:100943000000082A7F1008047F00000008323E419F
:0609530041413E000000DE
:10088C00E4FFFE740A2FF8E6FD74422FF8A6050F5C
:10089C00BF00010EEF64084E70E9E4FEFF74122FE6
:1008AC00F8E6FD744A2FF8A6050FBF00010EEF64A1
:1008BC00084E70E9E4FEFF741A2FF8E6FD74522F0F
:1008CC00F8A6050FBF00010EEF64084E70E9E4FEB8
:1008DC00FF74222FF8E6FD745A2FF8A6050FBF00FF
:1008EC00010EEF64084E70E9750902E4F50875A075
:1008FC0001F5B0E50964027003120990E509640280
:07090C0070F112095A80ECA2
:10099000E4F509E50864077004F5088002050875A8
:0309A00009022227
:10095A007509017F1F7E0074422FF8E6FDAC08A8D6
:10096A0004088002C333D8FCFD3392B0C2B1D2B1BD
:10097A00EF1F70011EBEFFDFBFFFDCC2B2D2B2851D
:05098A0008A075090240
:01098F002245
:10080C0002088CE493A3F8E493A34003F68001F26E
:10081C0008DFF48029E493A3F85407240CC8C333ED
:10082C00C4540F4420C8834004F456800146F6DFBC
:10083C00E4800B0102040810204080900913E47E30
:10084C00019360BCA3FF543F30E509541FFEE493B1
:10085C00A360010ECF54C025E060A840B8E493A378
:10086C00FAE493A3F8E493A3C8C582C8CAC583CAA3
:10087C00F0A3C8C582C8CAC583CADFE9DEE780BE5B
:01095900009D
:00000001FF
